:020000040000FA
:0400000013EF00F00A
:06000800108277ED00F00C
:100018001080E0CF0FF00FC0E0FF10901000C5EF88
:1000280000F0000E066E04BE1EEF00F01CEF00F09C
:1000380024EF00F0036C041ED8B0042A010E066EEB
:1000480002BE2BEF00F029EF00F031EF00F0016C59
:10005800021ED8B0022A010E061A000E086E000E03
:10006800076E03500410D8B43CEF00F03EEF00F0E8
:1000780066EF00F0010E056E46EF00F0D8900336EB
:100088000436052A04AE4BEF00F04DEF00F042EFC6
:1000980000F0D890073608360350015C0450025827
:1000A800D8A059EF00F05BEF00F060EF00F00350CC
:1000B800015E0450025A0780D89004320332052E9C
:1000C8004DEF00F00650D8B46CEF00F06EEF00F082
:1000D80072EF00F0076C081ED8B0082A07C001F0BC
:1000E80008C002F012000600C4500A6E096AC35024
:1000F80009240D6E000E0A200E6E3F0E0D14096EB7
:10010800000E0E140A6E09500D5C016E0A500E584E
:10011800026E000E046E400E036E15EC00F001C076
:100128000BF002C00CF00BC08CFF9E9CC282109298
:100138001100700ED312010E926E000E956E000E15
:100148008C6EC19AC198C150F00B0E09C16EC30ED6
:10015800C216C050F80B0109C06EC050C70B200969
:10016800C06EC280C08E9E9C9D8CF28E9F8CC28277
:10017800D08E12009DEC00F0C282C0EF00F013EFA9
:0C01880000F0109010920001BEEF00F09B
:020000040020DA
:08000000FFFFFFFFFFFFFFFF00
:020000040030CA
:0E000000FF071F1FFF8385FF0FC00FE00F409B
:00000001FF
