:020000040000FA
:0400000036EF00F0E7
:06000800498283ED02F0C5
:100018004980D8CF32F0E8CF33F0E0CF34F0D9CFF1
:1000280035F0DACF36F09EAA1CEF00F01EEF00F094
:100038002AEF00F0ABA223EF00F025EF00F028EF45
:1000480000F0AB9800F0AB8832EC01F036C0DAFF74
:1000580035C0D9FF34C0E0FF33C0E8FF32C0D8FF55
:10006800499010003DEF02F0000E456E000E446E00
:10007800000E436E000E426E44EF00F03D4A3E2AE9
:100088003DC0D9FF3EC0DAFF200EDE18D8B44FEFCE
:1000980000F051EF00F042EF00F03DC0D9FF3EC044
:1000A800DAFFDF503F6EF70E3F24406E416AFF0EC5
:1000B8004122415009E1050E405CD8A066EF00F0EE
:1000C80068EF00F042EF00F072EF00F0000E436EB0
:1000D800010E426E3D4A3E2AA7EF00F03DC0D9FF0F
:1000E8003EC0DAFFDF503F6E406A4050000AD8B485
:1000F80080EF00F0A7EF00F03F502B0AD8B46EEF66
:1001080000F0060AD8B46AEF00F0A7EF00F044C088
:1001180037F045C038F0000E3A6E0A0E396E2AECF8
:1001280002F03DC0D9FF3EC0DAFFDF503F6E3F50BE
:10013800375E000E385A300E3724446E000E3820D1
:10014800456E6EEF00F03DC0D9FF3EC0DAFFDF50CC
:100158003F6ED00E3F24406E416AFF0E412241504F
:1001680009E10A0E405CD8A0BCEF00F0BEEF00F039
:100178008BEF00F042504310D8A4C5EF00F0C7EF52
:1001880000F0D5EF00F044C03FF045C040F03F1EFE
:10019800401E3F4A402A3FC03DF040C03EF0D9EFE4
:1001A80000F044C03DF045C03EF01200000E306E35
:1001B8002CBEE3EF00F0E1EF00F0E9EF00F02B6C6C
:1001C8002C1ED8B02C2A010E306E2EBEF0EF00F097
:1001D800EEEF00F0F4EF00F02D6C2E1ED8B02E2AB2
:1001E8002D502E10D8B4FBEF00F0FDEF00F021EFFA
:1001F80001F0010E2F6E05EF01F0D8902D362E3646
:100208002F2A2EAE0AEF01F00CEF01F001EF01F0FA
:100218002D502B5C2E502C58D8A015EF01F017EF5D
:1002280001F01BEF01F02D502B5E2E502C5AD89068
:100238002E322D322F2E0CEF01F03050D8B427EF8C
:1002480001F029EF01F02DEF01F02B6C2C1ED8B036
:100258002C2A2BC02BF02CC02CF01200170E0124D6
:10026800D96E000E0220DA6EAECFDFFF170E012422
:10027800D96E000E0220DA6E0D0EDE18D8A447EFF4
:1002880001F049EF01F051EF01F00A0E60EC02F0C5
:100298000D0E60EC02F06AEF01F0170E0124D96E22
:1002A800000E0220DA6EDF5060EC02F0014A022AEA
:1002B80001C02BF002C02CF0000E2E6E140E2D6E15
:1002C800DAEC00F02BC001F02CC002F012004AEC6E
:1002D80002F0030E396E000E3A6E76EC02F037C06B
:1002E8003BF038C03CF0E0EC01F071EC02F037C0B4
:1002F80047F038C048F0030E4724D96E000E482056
:10030800DA6E0D0EDE18D8A48CEF01F08EEF01F036
:100318006DEF01F0030E3D6E000E3E6E38EC00F0FE
:100328003D508C6EBFEC01F06DEF01F036EF00F040
:10033800010E3B6E200E37183810D8B4A6EF01F026
:10034800A8EF01F0BBEF01F0F70E3724396EFF0E6E
:1003580038203A6E3A5009E1050E395CD8A0B7EF5B
:1003680001F0B9EF01F0BBEF01F0000E3B6E3BC0AE
:1003780037F0386A1200000E386E000E376E170E0E
:100388003724D96E000E3820DA6E000EDF6E374A39
:10039800382A38BED9EF01F0385009E10A0E375C27
:1003A800D8A0D9EF01F0DBEF01F0C3EF01F0000EA8
:1003B800026E000E016E12003BC03DF03CC03EF0E4
:1003C80039C03FF03AC040F03DC0D9FF3EC0DAFF27
:1003D8003D4A3E2A3FC0E1FF40C0E2FF3F4A402A73
:1003E800DFCFE7FFE750D8A4FCEF01F0FEEF01F004
:1003F800E8EF01F01200D00E3724396EFF0E3820D6
:100408003A6E3A500AE10A0E395CD8A00EEF02F0B3
:1004180011EF02F0010E12EF02F0000E376E386A8B
:100428001200000E956E000E8C6E948C948EAC9813
:10043800B896AC94330EAF6EAB8E9E889E9AAC8AFB
:10044800AB889D989F989D8A9F9A120037503902D1
:10045800F3CF3BF0F4CF3CF037503A02F3503C2650
:1004680038503902F3503C263BC037F03CC038F0D6
:10047800120000EE01F02A0EEE6AE806FDE149904E
:100488004992000EF86E00016BEF01F07BEC02F070
:100498007FEC02F015EC02F06BEC02F055EC02F088
:1004A800120092680E0EC16EC08E070EC012000EAA
:1004B800C46E000EC36E12002B6EACA266EF02F083
:1004C80068EF02F061EF02F02BC0ADFF12009494C8
:1004D800090EBD6E9E949F84120001C037F002C0C1
:1004E80038F01200170E376E000E386E1200D38CDB
:1004F800D38AD3981200D08EF28EF28C12000600A6
:040508004992110003
:020000040020DA
:08000000FFFFFFFFFFFFFFFF00
:020000040030CA
:0E000000FF881F00FF8381FF0FC00FE00F403D
:00000001FF
